{
  "_format": "hh-sol-artifact-1",
  "contractName": "SupplierRegistry",
  "sourceName": "contracts/SupplierRegistry.sol",
  "abi": [
    {
      "inputs": [],
      "stateMutability": "nonpayable",
      "type": "constructor"
    },
    {
      "inputs": [
        {
          "internalType": "address",
          "name": "sender",
          "type": "address"
        },
        {
          "internalType": "uint256",
          "name": "tokenId",
          "type": "uint256"
        },
        {
          "internalType": "address",
          "name": "owner",
          "type": "address"
        }
      ],
      "name": "ERC721IncorrectOwner",
      "type": "error"
    },
    {
      "inputs": [
        {
          "internalType": "address",
          "name": "operator",
          "type": "address"
        },
        {
          "internalType": "uint256",
          "name": "tokenId",
          "type": "uint256"
        }
      ],
      "name": "ERC721InsufficientApproval",
      "type": "error"
    },
    {
      "inputs": [
        {
          "internalType": "address",
          "name": "approver",
          "type": "address"
        }
      ],
      "name": "ERC721InvalidApprover",
      "type": "error"
    },
    {
      "inputs": [
        {
          "internalType": "address",
          "name": "operator",
          "type": "address"
        }
      ],
      "name": "ERC721InvalidOperator",
      "type": "error"
    },
    {
      "inputs": [
        {
          "internalType": "address",
          "name": "owner",
          "type": "address"
        }
      ],
      "name": "ERC721InvalidOwner",
      "type": "error"
    },
    {
      "inputs": [
        {
          "internalType": "address",
          "name": "receiver",
          "type": "address"
        }
      ],
      "name": "ERC721InvalidReceiver",
      "type": "error"
    },
    {
      "inputs": [
        {
          "internalType": "address",
          "name": "sender",
          "type": "address"
        }
      ],
      "name": "ERC721InvalidSender",
      "type": "error"
    },
    {
      "inputs": [
        {
          "internalType": "uint256",
          "name": "tokenId",
          "type": "uint256"
        }
      ],
      "name": "ERC721NonexistentToken",
      "type": "error"
    },
    {
      "inputs": [
        {
          "internalType": "address",
          "name": "owner",
          "type": "address"
        }
      ],
      "name": "OwnableInvalidOwner",
      "type": "error"
    },
    {
      "inputs": [
        {
          "internalType": "address",
          "name": "account",
          "type": "address"
        }
      ],
      "name": "OwnableUnauthorizedAccount",
      "type": "error"
    },
    {
      "anonymous": false,
      "inputs": [
        {
          "indexed": true,
          "internalType": "address",
          "name": "owner",
          "type": "address"
        },
        {
          "indexed": true,
          "internalType": "address",
          "name": "approved",
          "type": "address"
        },
        {
          "indexed": true,
          "internalType": "uint256",
          "name": "tokenId",
          "type": "uint256"
        }
      ],
      "name": "Approval",
      "type": "event"
    },
    {
      "anonymous": false,
      "inputs": [
        {
          "indexed": true,
          "internalType": "address",
          "name": "owner",
          "type": "address"
        },
        {
          "indexed": true,
          "internalType": "address",
          "name": "operator",
          "type": "address"
        },
        {
          "indexed": false,
          "internalType": "bool",
          "name": "approved",
          "type": "bool"
        }
      ],
      "name": "ApprovalForAll",
      "type": "event"
    },
    {
      "anonymous": false,
      "inputs": [
        {
          "indexed": true,
          "internalType": "address",
          "name": "supplier",
          "type": "address"
        },
        {
          "indexed": true,
          "internalType": "uint256",
          "name": "tokenId",
          "type": "uint256"
        },
        {
          "indexed": false,
          "internalType": "string",
          "name": "companyName",
          "type": "string"
        },
        {
          "indexed": false,
          "internalType": "uint8",
          "name": "tier",
          "type": "uint8"
        }
      ],
      "name": "CredentialIssued",
      "type": "event"
    },
    {
      "anonymous": false,
      "inputs": [
        {
          "indexed": true,
          "internalType": "uint256",
          "name": "tokenId",
          "type": "uint256"
        },
        {
          "indexed": false,
          "internalType": "uint256",
          "name": "newExpiresAt",
          "type": "uint256"
        }
      ],
      "name": "CredentialRenewed",
      "type": "event"
    },
    {
      "anonymous": false,
      "inputs": [
        {
          "indexed": true,
          "internalType": "uint256",
          "name": "tokenId",
          "type": "uint256"
        },
        {
          "indexed": false,
          "internalType": "string",
          "name": "reason",
          "type": "string"
        }
      ],
      "name": "CredentialRevoked",
      "type": "event"
    },
    {
      "anonymous": false,
      "inputs": [
        {
          "indexed": true,
          "internalType": "address",
          "name": "previousOwner",
          "type": "address"
        },
        {
          "indexed": true,
          "internalType": "address",
          "name": "newOwner",
          "type": "address"
        }
      ],
      "name": "OwnershipTransferred",
      "type": "event"
    },
    {
      "anonymous": false,
      "inputs": [
        {
          "indexed": true,
          "internalType": "address",
          "name": "from",
          "type": "address"
        },
        {
          "indexed": true,
          "internalType": "address",
          "name": "to",
          "type": "address"
        },
        {
          "indexed": true,
          "internalType": "uint256",
          "name": "tokenId",
          "type": "uint256"
        }
      ],
      "name": "Transfer",
      "type": "event"
    },
    {
      "inputs": [
        {
          "internalType": "address",
          "name": "to",
          "type": "address"
        },
        {
          "internalType": "uint256",
          "name": "tokenId",
          "type": "uint256"
        }
      ],
      "name": "approve",
      "outputs": [],
      "stateMutability": "nonpayable",
      "type": "function"
    },
    {
      "inputs": [
        {
          "internalType": "address",
          "name": "owner",
          "type": "address"
        }
      ],
      "name": "balanceOf",
      "outputs": [
        {
          "internalType": "uint256",
          "name": "",
          "type": "uint256"
        }
      ],
      "stateMutability": "view",
      "type": "function"
    },
    {
      "inputs": [
        {
          "internalType": "uint256",
          "name": "",
          "type": "uint256"
        }
      ],
      "name": "credentials",
      "outputs": [
        {
          "internalType": "address",
          "name": "supplier",
          "type": "address"
        },
        {
          "internalType": "string",
          "name": "companyName",
          "type": "string"
        },
        {
          "internalType": "string",
          "name": "taxId",
          "type": "string"
        },
        {
          "internalType": "string",
          "name": "country",
          "type": "string"
        },
        {
          "internalType": "string",
          "name": "docsIPFSHash",
          "type": "string"
        },
        {
          "internalType": "uint256",
          "name": "issuedAt",
          "type": "uint256"
        },
        {
          "internalType": "uint256",
          "name": "expiresAt",
          "type": "uint256"
        },
        {
          "internalType": "bool",
          "name": "isActive",
          "type": "bool"
        },
        {
          "internalType": "uint8",
          "name": "tier",
          "type": "uint8"
        }
      ],
      "stateMutability": "view",
      "type": "function"
    },
    {
      "inputs": [
        {
          "internalType": "uint256",
          "name": "tokenId",
          "type": "uint256"
        }
      ],
      "name": "getApproved",
      "outputs": [
        {
          "internalType": "address",
          "name": "",
          "type": "address"
        }
      ],
      "stateMutability": "view",
      "type": "function"
    },
    {
      "inputs": [
        {
          "internalType": "address",
          "name": "owner",
          "type": "address"
        },
        {
          "internalType": "address",
          "name": "operator",
          "type": "address"
        }
      ],
      "name": "isApprovedForAll",
      "outputs": [
        {
          "internalType": "bool",
          "name": "",
          "type": "bool"
        }
      ],
      "stateMutability": "view",
      "type": "function"
    },
    {
      "inputs": [
        {
          "internalType": "address",
          "name": "_supplier",
          "type": "address"
        },
        {
          "internalType": "string",
          "name": "_companyName",
          "type": "string"
        },
        {
          "internalType": "string",
          "name": "_taxId",
          "type": "string"
        },
        {
          "internalType": "string",
          "name": "_country",
          "type": "string"
        },
        {
          "internalType": "string",
          "name": "_docsIPFSHash",
          "type": "string"
        },
        {
          "internalType": "uint8",
          "name": "_tier",
          "type": "uint8"
        }
      ],
      "name": "issueCredential",
      "outputs": [],
      "stateMutability": "nonpayable",
      "type": "function"
    },
    {
      "inputs": [],
      "name": "name",
      "outputs": [
        {
          "internalType": "string",
          "name": "",
          "type": "string"
        }
      ],
      "stateMutability": "view",
      "type": "function"
    },
    {
      "inputs": [],
      "name": "owner",
      "outputs": [
        {
          "internalType": "address",
          "name": "",
          "type": "address"
        }
      ],
      "stateMutability": "view",
      "type": "function"
    },
    {
      "inputs": [
        {
          "internalType": "uint256",
          "name": "tokenId",
          "type": "uint256"
        }
      ],
      "name": "ownerOf",
      "outputs": [
        {
          "internalType": "address",
          "name": "",
          "type": "address"
        }
      ],
      "stateMutability": "view",
      "type": "function"
    },
    {
      "inputs": [
        {
          "internalType": "uint256",
          "name": "_tokenId",
          "type": "uint256"
        }
      ],
      "name": "renewCredential",
      "outputs": [],
      "stateMutability": "nonpayable",
      "type": "function"
    },
    {
      "inputs": [],
      "name": "renounceOwnership",
      "outputs": [],
      "stateMutability": "nonpayable",
      "type": "function"
    },
    {
      "inputs": [
        {
          "internalType": "uint256",
          "name": "_tokenId",
          "type": "uint256"
        },
        {
          "internalType": "string",
          "name": "_reason",
          "type": "string"
        }
      ],
      "name": "revokeCredential",
      "outputs": [],
      "stateMutability": "nonpayable",
      "type": "function"
    },
    {
      "inputs": [
        {
          "internalType": "address",
          "name": "from",
          "type": "address"
        },
        {
          "internalType": "address",
          "name": "to",
          "type": "address"
        },
        {
          "internalType": "uint256",
          "name": "tokenId",
          "type": "uint256"
        }
      ],
      "name": "safeTransferFrom",
      "outputs": [],
      "stateMutability": "nonpayable",
      "type": "function"
    },
    {
      "inputs": [
        {
          "internalType": "address",
          "name": "",
          "type": "address"
        },
        {
          "internalType": "address",
          "name": "",
          "type": "address"
        },
        {
          "internalType": "uint256",
          "name": "",
          "type": "uint256"
        },
        {
          "internalType": "bytes",
          "name": "",
          "type": "bytes"
        }
      ],
      "name": "safeTransferFrom",
      "outputs": [],
      "stateMutability": "pure",
      "type": "function"
    },
    {
      "inputs": [
        {
          "internalType": "address",
          "name": "operator",
          "type": "address"
        },
        {
          "internalType": "bool",
          "name": "approved",
          "type": "bool"
        }
      ],
      "name": "setApprovalForAll",
      "outputs": [],
      "stateMutability": "nonpayable",
      "type": "function"
    },
    {
      "inputs": [
        {
          "internalType": "address",
          "name": "",
          "type": "address"
        }
      ],
      "name": "supplierToken",
      "outputs": [
        {
          "internalType": "uint256",
          "name": "",
          "type": "uint256"
        }
      ],
      "stateMutability": "view",
      "type": "function"
    },
    {
      "inputs": [
        {
          "internalType": "bytes4",
          "name": "interfaceId",
          "type": "bytes4"
        }
      ],
      "name": "supportsInterface",
      "outputs": [
        {
          "internalType": "bool",
          "name": "",
          "type": "bool"
        }
      ],
      "stateMutability": "view",
      "type": "function"
    },
    {
      "inputs": [],
      "name": "symbol",
      "outputs": [
        {
          "internalType": "string",
          "name": "",
          "type": "string"
        }
      ],
      "stateMutability": "view",
      "type": "function"
    },
    {
      "inputs": [
        {
          "internalType": "string",
          "name": "",
          "type": "string"
        }
      ],
      "name": "taxIdToWallet",
      "outputs": [
        {
          "internalType": "address",
          "name": "",
          "type": "address"
        }
      ],
      "stateMutability": "view",
      "type": "function"
    },
    {
      "inputs": [
        {
          "internalType": "uint256",
          "name": "tokenId",
          "type": "uint256"
        }
      ],
      "name": "tokenURI",
      "outputs": [
        {
          "internalType": "string",
          "name": "",
          "type": "string"
        }
      ],
      "stateMutability": "view",
      "type": "function"
    },
    {
      "inputs": [],
      "name": "totalSuppliers",
      "outputs": [
        {
          "internalType": "uint256",
          "name": "",
          "type": "uint256"
        }
      ],
      "stateMutability": "view",
      "type": "function"
    },
    {
      "inputs": [
        {
          "internalType": "address",
          "name": "",
          "type": "address"
        },
        {
          "internalType": "address",
          "name": "",
          "type": "address"
        },
        {
          "internalType": "uint256",
          "name": "",
          "type": "uint256"
        }
      ],
      "name": "transferFrom",
      "outputs": [],
      "stateMutability": "pure",
      "type": "function"
    },
    {
      "inputs": [
        {
          "internalType": "address",
          "name": "newOwner",
          "type": "address"
        }
      ],
      "name": "transferOwnership",
      "outputs": [],
      "stateMutability": "nonpayable",
      "type": "function"
    },
    {
      "inputs": [
        {
          "internalType": "string",
          "name": "_taxId",
          "type": "string"
        }
      ],
      "name": "verifyByTaxId",
      "outputs": [
        {
          "internalType": "bool",
          "name": "isValid",
          "type": "bool"
        },
        {
          "components": [
            {
              "internalType": "address",
              "name": "supplier",
              "type": "address"
            },
            {
              "internalType": "string",
              "name": "companyName",
              "type": "string"
            },
            {
              "internalType": "string",
              "name": "taxId",
              "type": "string"
            },
            {
              "internalType": "string",
              "name": "country",
              "type": "string"
            },
            {
              "internalType": "string",
              "name": "docsIPFSHash",
              "type": "string"
            },
            {
              "internalType": "uint256",
              "name": "issuedAt",
              "type": "uint256"
            },
            {
              "internalType": "uint256",
              "name": "expiresAt",
              "type": "uint256"
            },
            {
              "internalType": "bool",
              "name": "isActive",
              "type": "bool"
            },
            {
              "internalType": "uint8",
              "name": "tier",
              "type": "uint8"
            }
          ],
          "internalType": "struct SupplierRegistry.Credential",
          "name": "cred",
          "type": "tuple"
        },
        {
          "internalType": "address",
          "name": "supplierWallet",
          "type": "address"
        }
      ],
      "stateMutability": "view",
      "type": "function"
    },
    {
      "inputs": [
        {
          "internalType": "address",
          "name": "_supplier",
          "type": "address"
        }
      ],
      "name": "verifySupplier",
      "outputs": [
        {
          "internalType": "bool",
          "name": "isValid",
          "type": "bool"
        },
        {
          "components": [
            {
              "internalType": "address",
              "name": "supplier",
              "type": "address"
            },
            {
              "internalType": "string",
              "name": "companyName",
              "type": "string"
            },
            {
              "internalType": "string",
              "name": "taxId",
              "type": "string"
            },
            {
              "internalType": "string",
              "name": "country",
              "type": "string"
            },
            {
              "internalType": "string",
              "name": "docsIPFSHash",
              "type": "string"
            },
            {
              "internalType": "uint256",
              "name": "issuedAt",
              "type": "uint256"
            },
            {
              "internalType": "uint256",
              "name": "expiresAt",
              "type": "uint256"
            },
            {
              "internalType": "bool",
              "name": "isActive",
              "type": "bool"
            },
            {
              "internalType": "uint8",
              "name": "tier",
              "type": "uint8"
            }
          ],
          "internalType": "struct SupplierRegistry.Credential",
          "name": "cred",
          "type": "tuple"
        }
      ],
      "stateMutability": "view",
      "type": "function"
    }
  ],
  "bytecode": "0x608060405234801561000f575f5ffd5b50336040518060400160405280601681526020017f566572696679436861696e2043726564656e7469616c000000000000000000008152506040518060400160405280600381526020016256434360e81b815250815f908161007191906101a6565b50600161007e82826101a6565b5050506001600160a01b0381166100ae57604051631e4fbdf760e01b81525f600482015260240160405180910390fd5b6100b7816100bd565b50610260565b600680546001600160a01b038381166001600160a01b0319831681179093556040519116919082907f8be0079c531659141344cd1fd0a4f28419497f9722a3daafe3b4186f6b6457e0905f90a35050565b634e487b7160e01b5f52604160045260245ffd5b600181811c9082168061013657607f821691505b60208210810361015457634e487b7160e01b5f52602260045260245ffd5b50919050565b601f8211156101a157805f5260205f20601f840160051c8101602085101561017f5750805b601f840160051c820191505b8181101561019e575f815560010161018b565b50505b505050565b81516001600160401b038111156101bf576101bf61010e565b6101d3816101cd8454610122565b8461015a565b6020601f821160018114610205575f83156101ee5750848201515b5f19600385901b1c1916600184901b17845561019e565b5f84815260208120601f198516915b828110156102345787850151825560209485019460019092019101610214565b508482101561025157868401515f19600387901b60f8161c191681555b50505050600190811b01905550565b6123d58061026d5f395ff3fe608060405234801561000f575f5ffd5b506004361061016d575f3560e01c80638da5cb5b116100d9578063b88d4fde11610093578063cd0fdee91161006e578063cd0fdee914610340578063e0574e3f14610374578063e985e9c51461039c578063f2fde38b146103af575f5ffd5b8063b88d4fde1461030c578063c5a2a3101461031a578063c87b56dd1461032d575f5ffd5b80638da5cb5b146102a6578063957a3205146102b757806395d89b41146102ca578063a22cb465146102d2578063a720d24d146102e5578063aa0f0723146102ed575f5ffd5b806342842e0e1161012a57806342842e0e146102145780634959e087146102275780635e3373df146102485780636352211e1461026a57806370a082311461027d578063715018a61461029e575f5ffd5b806301ffc9a71461017157806306fdde0314610199578063081812fc146101ae578063095ea7b3146101d957806323b872dd146101ee5780633e82259314610201575b5f5ffd5b61018461017f366004611bfa565b6103c2565b60405190151581526020015b60405180910390f35b6101a1610413565b6040516101909190611c43565b6101c16101bc366004611c55565b6104a2565b6040516001600160a01b039091168152602001610190565b6101ec6101e7366004611c87565b6104c9565b005b6101ec6101fc366004611caf565b6104d8565b6101ec61020f366004611c55565b61053b565b6101ec610222366004611caf565b610637565b61023a610235366004611ce9565b610656565b604051610190929190611db9565b61025b610256366004611e7c565b610945565b60405161019093929190611eae565b6101c1610278366004611c55565b610c5b565b61029061028b366004611ce9565b610c65565b604051908152602001610190565b6101ec610caa565b6006546001600160a01b03166101c1565b6101ec6102c5366004611ee0565b610cbd565b6101a1610dad565b6101ec6102e0366004611f24565b610dbc565b600754610290565b6102906102fb366004611ce9565b60096020525f908152604090205481565b6101ec6101fc366004611f5d565b6101ec610328366004611fe4565b610dc7565b6101a161033b366004611c55565b6110c8565b6101c161034e366004611e7c565b8051602081830181018051600a825292820191909301209152546001600160a01b031681565b610387610382366004611c55565b611139565b604051610190999897969594939291906120bc565b6101846103aa366004612147565b6113a9565b6101ec6103bd366004611ce9565b6113d6565b5f6001600160e01b031982166380ac58cd60e01b14806103f257506001600160e01b03198216635b5e139f60e01b145b8061040d57506301ffc9a760e01b6001600160e01b03198316145b92915050565b60605f805461042190612178565b80601f016020809104026020016040519081016040528092919081815260200182805461044d90612178565b80156104985780601f1061046f57610100808354040283529160200191610498565b820191905f5260205f20905b81548152906001019060200180831161047b57829003601f168201915b5050505050905090565b5f6104ac82611413565b505f828152600460205260409020546001600160a01b031661040d565b6104d482823361144b565b5050565b60405162461bcd60e51b815260206004820152602d60248201527f566572696679436861696e3a2063726564656e7469616c7320617265206e6f6e60448201526c2d7472616e7366657261626c6560981b60648201526084015b60405180910390fd5b610543611458565b61054c81611485565b61058f5760405162461bcd60e51b8152602060048201526014602482015273151bdad95b88191bd95cc81b9bdd08195e1a5cdd60621b6044820152606401610532565b5f818152600860205260409020600781015460ff166105e85760405162461bcd60e51b815260206004820152601560248201527410dc9959195b9d1a585b081a5cc81c995d9bdad959605a1b6044820152606401610532565b6105f6426301e133806121c4565b6006820181905560405190815282907f0904a7fadcc0111d8fbde980820d8cbf110e0457eac3b3fa7d4f58d6a4cd890a906020015b60405180910390a25050565b61065183838360405180602001604052805f8152506104d8565b505050565b5f61065f611b90565b6001600160a01b0383165f9081526009602052604081205490819003610688575f925050915091565b5f818152600860209081526040918290208251610120810190935280546001600160a01b0316835260018101805491928401916106c490612178565b80601f01602080910402602001604051908101604052809291908181526020018280546106f090612178565b801561073b5780601f106107125761010080835404028352916020019161073b565b820191905f5260205f20905b81548152906001019060200180831161071e57829003601f168201915b5050505050815260200160028201805461075490612178565b80601f016020809104026020016040519081016040528092919081815260200182805461078090612178565b80156107cb5780601f106107a2576101008083540402835291602001916107cb565b820191905f5260205f20905b8154815290600101906020018083116107ae57829003601f168201915b505050505081526020016003820180546107e490612178565b80601f016020809104026020016040519081016040528092919081815260200182805461081090612178565b801561085b5780601f106108325761010080835404028352916020019161085b565b820191905f5260205f20905b81548152906001019060200180831161083e57829003601f168201915b5050505050815260200160048201805461087490612178565b80601f01602080910402602001604051908101604052809291908181526020018280546108a090612178565b80156108eb5780601f106108c2576101008083540402835291602001916108eb565b820191905f5260205f20905b8154815290600101906020018083116108ce57829003601f168201915b5050509183525050600582015460208201526006820154604082015260079091015460ff808216151560608401526101009091041660809091015260e0810151909250801561093d57508160c0015142105b925050915091565b5f61094e611b90565b5f600a8460405161095f91906121ee565b908152604051908190036020019020546001600160a01b0316905080610987575f9250610c54565b6001600160a01b038082165f90815260096020908152604080832054808452600883529281902081516101208101909252805490941681526001840180549394919391928401916109d790612178565b80601f0160208091040260200160405190810160405280929190818152602001828054610a0390612178565b8015610a4e5780601f10610a2557610100808354040283529160200191610a4e565b820191905f5260205f20905b815481529060010190602001808311610a3157829003601f168201915b50505050508152602001600282018054610a6790612178565b80601f0160208091040260200160405190810160405280929190818152602001828054610a9390612178565b8015610ade5780601f10610ab557610100808354040283529160200191610ade565b820191905f5260205f20905b815481529060010190602001808311610ac157829003601f168201915b50505050508152602001600382018054610af790612178565b80601f0160208091040260200160405190810160405280929190818152602001828054610b2390612178565b8015610b6e5780601f10610b4557610100808354040283529160200191610b6e565b820191905f5260205f20905b815481529060010190602001808311610b5157829003601f168201915b50505050508152602001600482018054610b8790612178565b80601f0160208091040260200160405190810160405280929190818152602001828054610bb390612178565b8015610bfe5780601f10610bd557610100808354040283529160200191610bfe565b820191905f5260205f20905b815481529060010190602001808311610be157829003601f168201915b5050509183525050600582015460208201526006820154604082015260079091015460ff808216151560608401526101009091041660809091015260e08101519093508015610c5057508260c0015142105b9350505b9193909250565b5f61040d82611413565b5f6001600160a01b038216610c8f576040516322718ad960e21b81525f6004820152602401610532565b506001600160a01b03165f9081526003602052604090205490565b610cb2611458565b610cbb5f611499565b565b610cc5611458565b610cce82611485565b610d115760405162461bcd60e51b8152602060048201526014602482015273151bdad95b88191bd95cc81b9bdd08195e1a5cdd60621b6044820152606401610532565b5f8281526008602052604090206007015460ff16610d635760405162461bcd60e51b815260206004820152600f60248201526e105b1c9958591e481c995d9bdad959608a1b6044820152606401610532565b5f8281526008602052604090819020600701805460ff191690555182907f37ec22acf5d9778ea37b449f7834d99acb0c9632e381d2ceba59480d79ca91a79061062b908490611c43565b60606001805461042190612178565b6104d43383836114ea565b610dcf611458565b6001600160a01b038616610e255760405162461bcd60e51b815260206004820152601860248201527f496e76616c696420737570706c696572206164647265737300000000000000006044820152606401610532565b6001600160a01b0386165f9081526009602052604090205415610e8a5760405162461bcd60e51b815260206004820152601f60248201527f537570706c69657220616c7265616479206861732063726564656e7469616c006044820152606401610532565b60018160ff1610158015610ea2575060038160ff1611155b610edd5760405162461bcd60e51b815260206004820152600c60248201526b24b73b30b634b2103a34b2b960a11b6044820152606401610532565b60078054905f610eec836121f9565b91905055505f6007549050604051806101200160405280886001600160a01b03168152602001878152602001868152602001858152602001848152602001428152602001426301e13380610f4091906121c4565b81526001602080830182905260ff86166040938401525f8581526008825292909220835181546001600160a01b0319166001600160a01b039091161781559183015190820190610f909082612255565b5060408201516002820190610fa59082612255565b5060608201516003820190610fba9082612255565b5060808201516004820190610fcf9082612255565b5060a0820151600582015560c0820151600682015560e0820151600790910180546101009384015161ffff1990911692151561ff0019169290921760ff9092169092021790556001600160a01b0387165f9081526009602052604090819020829055518790600a906110429088906121ee565b90815260405190819003602001902080546001600160a01b03929092166001600160a01b031990921691909117905561107b87826115b1565b80876001600160a01b03167fd55a0395b6dcb9508621ab05a0ad3ed782b9702f77951b3c8b727b40f6379d2188856040516110b7929190612310565b60405180910390a350505050505050565b60606110d382611413565b505f6110e960408051602081019091525f815290565b90505f8151116111075760405180602001604052805f815250611132565b80611111846115ca565b604051602001611122929190612334565b6040516020818303038152906040525b9392505050565b60086020525f9081526040902080546001820180546001600160a01b03909216929161116490612178565b80601f016020809104026020016040519081016040528092919081815260200182805461119090612178565b80156111db5780601f106111b2576101008083540402835291602001916111db565b820191905f5260205f20905b8154815290600101906020018083116111be57829003601f168201915b5050505050908060020180546111f090612178565b80601f016020809104026020016040519081016040528092919081815260200182805461121c90612178565b80156112675780601f1061123e57610100808354040283529160200191611267565b820191905f5260205f20905b81548152906001019060200180831161124a57829003601f168201915b50505050509080600301805461127c90612178565b80601f01602080910402602001604051908101604052809291908181526020018280546112a890612178565b80156112f35780601f106112ca576101008083540402835291602001916112f3565b820191905f5260205f20905b8154815290600101906020018083116112d657829003601f168201915b50505050509080600401805461130890612178565b80601f016020809104026020016040519081016040528092919081815260200182805461133490612178565b801561137f5780601f106113565761010080835404028352916020019161137f565b820191905f5260205f20905b81548152906001019060200180831161136257829003601f168201915b50505050600583015460068401546007909401549293909290915060ff8082169161010090041689565b6001600160a01b039182165f90815260056020908152604080832093909416825291909152205460ff1690565b6113de611458565b6001600160a01b03811661140757604051631e4fbdf760e01b81525f6004820152602401610532565b61141081611499565b50565b5f818152600260205260408120546001600160a01b03168061040d57604051637e27328960e01b815260048101849052602401610532565b610651838383600161165b565b6006546001600160a01b03163314610cbb5760405163118cdaa760e01b8152336004820152602401610532565b5f5f8211801561040d575050600754101590565b600680546001600160a01b038381166001600160a01b0319831681179093556040519116919082907f8be0079c531659141344cd1fd0a4f28419497f9722a3daafe3b4186f6b6457e0905f90a35050565b6001600160a01b0383166115135760405163a9fbf51f60e01b81525f6004820152602401610532565b6001600160a01b03821661154557604051630b61174360e31b81526001600160a01b0383166004820152602401610532565b6001600160a01b038381165f81815260056020908152604080832094871680845294825291829020805460ff191686151590811790915591519182527f17307eab39ab6107e8899845ad3d59bd9653f200f220920489ca2b5937696c31910160405180910390a3505050565b6104d4828260405180602001604052805f81525061175f565b60605f6115d683611776565b60010190505f8167ffffffffffffffff8111156115f5576115f5611dd3565b6040519080825280601f01601f19166020018201604052801561161f576020820181803683370190505b5090508181016020015b5f19016f181899199a1a9b1b9c1cb0b131b232b360811b600a86061a8153600a8504945084611629575b509392505050565b808061166f57506001600160a01b03821615155b15611730575f61167e84611413565b90506001600160a01b038316158015906116aa5750826001600160a01b0316816001600160a01b031614155b80156116bd57506116bb81846113a9565b155b156116e65760405163a9fbf51f60e01b81526001600160a01b0384166004820152602401610532565b811561172e5783856001600160a01b0316826001600160a01b03167f8c5be1e5ebec7d5bd14f71427d1e84f3dd0314c0f7b2291e5b200ac8c7c3b92560405160405180910390a45b505b50505f90815260046020526040902080546001600160a01b0319166001600160a01b0392909216919091179055565b611769838361184d565b610651335f8585856118ae565b5f8072184f03e93ff9f4daa797ed6e38ed64bf6a1f0160401b83106117b45772184f03e93ff9f4daa797ed6e38ed64bf6a1f0160401b830492506040015b6d04ee2d6d415b85acef810000000083106117e0576d04ee2d6d415b85acef8100000000830492506020015b662386f26fc1000083106117fe57662386f26fc10000830492506010015b6305f5e1008310611816576305f5e100830492506008015b612710831061182a57612710830492506004015b6064831061183c576064830492506002015b600a831061040d5760010192915050565b6001600160a01b03821661187657604051633250574960e11b81525f6004820152602401610532565b5f61188283835f6119d6565b90506001600160a01b03811615610651576040516339e3563760e11b81525f6004820152602401610532565b6001600160a01b0383163b156119cf57604051630a85bd0160e11b81526001600160a01b0384169063150b7a02906118f0908890889087908790600401612348565b6020604051808303815f875af192505050801561192a575060408051601f3d908101601f1916820190925261192791810190612384565b60015b611991573d808015611957576040519150601f19603f3d011682016040523d82523d5f602084013e61195c565b606091505b5080515f0361198957604051633250574960e11b81526001600160a01b0385166004820152602401610532565b805160208201fd5b6001600160e01b03198116630a85bd0160e11b146119cd57604051633250574960e11b81526001600160a01b0385166004820152602401610532565b505b5050505050565b5f828152600260205260408120546001600160a01b0390811690831615611a0257611a02818486611ac8565b6001600160a01b03811615611a3c57611a1d5f855f5f61165b565b6001600160a01b0381165f90815260036020526040902080545f190190555b6001600160a01b03851615611a6a576001600160a01b0385165f908152600360205260409020805460010190555b5f8481526002602052604080822080546001600160a01b0319166001600160a01b0389811691821790925591518793918516917fddf252ad1be2c89b69c2b068fc378daa952ba7f163c4a11628f55a4df523b3ef91a4949350505050565b611ad3838383611b2c565b610651576001600160a01b038316611b0157604051637e27328960e01b815260048101829052602401610532565b60405163177e802f60e01b81526001600160a01b038316600482015260248101829052604401610532565b5f6001600160a01b03831615801590611b885750826001600160a01b0316846001600160a01b03161480611b655750611b6584846113a9565b80611b8857505f828152600460205260409020546001600160a01b038481169116145b949350505050565b6040518061012001604052805f6001600160a01b03168152602001606081526020016060815260200160608152602001606081526020015f81526020015f81526020015f151581526020015f60ff1681525090565b6001600160e01b031981168114611410575f5ffd5b5f60208284031215611c0a575f5ffd5b813561113281611be5565b5f81518084528060208401602086015e5f602082860101526020601f19601f83011685010191505092915050565b602081525f6111326020830184611c15565b5f60208284031215611c65575f5ffd5b5035919050565b80356001600160a01b0381168114611c82575f5ffd5b919050565b5f5f60408385031215611c98575f5ffd5b611ca183611c6c565b946020939093013593505050565b5f5f5f60608486031215611cc1575f5ffd5b611cca84611c6c565b9250611cd860208501611c6c565b929592945050506040919091013590565b5f60208284031215611cf9575f5ffd5b61113282611c6c565b80516001600160a01b031682525f60208201516101206020850152611d2b610120850182611c15565b905060408301518482036040860152611d448282611c15565b91505060608301518482036060860152611d5e8282611c15565b91505060808301518482036080860152611d788282611c15565b91505060a083015160a085015260c083015160c085015260e0830151611da260e086018215159052565b5061010083015161165361010086018260ff169052565b8215158152604060208201525f611b886040830184611d02565b634e487b7160e01b5f52604160045260245ffd5b5f5f67ffffffffffffffff841115611e0157611e01611dd3565b50604051601f19601f85018116603f0116810181811067ffffffffffffffff82111715611e3057611e30611dd3565b604052838152905080828401851015611e47575f5ffd5b838360208301375f60208583010152509392505050565b5f82601f830112611e6d575f5ffd5b61113283833560208501611de7565b5f60208284031215611e8c575f5ffd5b813567ffffffffffffffff811115611ea2575f5ffd5b611b8884828501611e5e565b8315158152606060208201525f611ec86060830185611d02565b905060018060a01b0383166040830152949350505050565b5f5f60408385031215611ef1575f5ffd5b82359150602083013567ffffffffffffffff811115611f0e575f5ffd5b611f1a85828601611e5e565b9150509250929050565b5f5f60408385031215611f35575f5ffd5b611f3e83611c6c565b915060208301358015158114611f52575f5ffd5b809150509250929050565b5f5f5f5f60808587031215611f70575f5ffd5b611f7985611c6c565b9350611f8760208601611c6c565b925060408501359150606085013567ffffffffffffffff811115611fa9575f5ffd5b8501601f81018713611fb9575f5ffd5b611fc887823560208401611de7565b91505092959194509250565b803560ff81168114611c82575f5ffd5b5f5f5f5f5f5f60c08789031215611ff9575f5ffd5b61200287611c6c565b9550602087013567ffffffffffffffff81111561201d575f5ffd5b61202989828a01611e5e565b955050604087013567ffffffffffffffff811115612045575f5ffd5b61205189828a01611e5e565b945050606087013567ffffffffffffffff81111561206d575f5ffd5b61207989828a01611e5e565b935050608087013567ffffffffffffffff811115612095575f5ffd5b6120a189828a01611e5e565b9250506120b060a08801611fd4565b90509295509295509295565b6001600160a01b038a168152610120602082018190525f906120e09083018b611c15565b82810360408401526120f2818b611c15565b90508281036060840152612106818a611c15565b9050828103608084015261211a8189611c15565b60a0840197909752505060c081019390935290151560e083015260ff166101009091015295945050505050565b5f5f60408385031215612158575f5ffd5b61216183611c6c565b915061216f60208401611c6c565b90509250929050565b600181811c9082168061218c57607f821691505b6020821081036121aa57634e487b7160e01b5f52602260045260245ffd5b50919050565b634e487b7160e01b5f52601160045260245ffd5b8082018082111561040d5761040d6121b0565b5f81518060208401855e5f93019283525090919050565b5f61113282846121d7565b5f6001820161220a5761220a6121b0565b5060010190565b601f82111561065157805f5260205f20601f840160051c810160208510156122365750805b601f840160051c820191505b818110156119cf575f8155600101612242565b815167ffffffffffffffff81111561226f5761226f611dd3565b6122838161227d8454612178565b84612211565b6020601f8211600181146122b5575f831561229e5750848201515b5f19600385901b1c1916600184901b1784556119cf565b5f84815260208120601f198516915b828110156122e457878501518255602094850194600190920191016122c4565b508482101561230157868401515f19600387901b60f8161c191681555b50505050600190811b01905550565b604081525f6123226040830185611c15565b905060ff831660208301529392505050565b5f611b8861234283866121d7565b846121d7565b6001600160a01b03858116825284166020820152604081018390526080606082018190525f9061237a90830184611c15565b9695505050505050565b5f60208284031215612394575f5ffd5b815161113281611be556fea26469706673582212201af1a51ecc6dfa822addb97bab0b4eab3844571c212db49ecaa633d07d85728b64736f6c634300081c0033",
  "linkReferences": {},
  "deployedLinkReferences": {}
}